{
  "_format": "hh-sol-artifact-1",
  "contractName": "Store",
  "sourceName": "contracts/Store.sol",
  "abi": [
    {
      "inputs": [],
      "stateMutability": "nonpayable",
      "type": "constructor"
    },
    {
      "anonymous": false,
      "inputs": [
        {
          "indexed": true,
          "internalType": "address",
          "name": "buyer",
          "type": "address"
        },
        {
          "indexed": false,
          "internalType": "uint256",
          "name": "timestamp",
          "type": "uint256"
        },
        {
          "indexed": false,
          "internalType": "string",
          "name": "name",
          "type": "string"
        }
      ],
      "name": "Sale",
      "type": "event"
    },
    {
      "inputs": [
        {
          "internalType": "string",
          "name": "_name",
          "type": "string"
        }
      ],
      "name": "buysProduct",
      "outputs": [],
      "stateMutability": "payable",
      "type": "function"
    },
    {
      "inputs": [],
      "name": "withdrawTips",
      "outputs": [],
      "stateMutability": "nonpayable",
      "type": "function"
    }
  ],
  "bytecode": "0x608060405234801561001057600080fd5b50336000806101000a81548173ffffffffffffffffffffffffffffffffffffffff021916908373ffffffffffffffffffffffffffffffffffffffff160217905550610619806100606000396000f3fe6080604052600436106100295760003560e01c80633039ac9d1461002e5780633aaa74b21461004a575b600080fd5b6100486004803603810190610043919061032e565b610061565b005b34801561005657600080fd5b5061005f6101c3565b005b600034116100a4576040517f08c379a000000000000000000000000000000000000000000000000000000000815260040161009b906103da565b60405180910390fd5b600160405180606001604052803373ffffffffffffffffffffffffffffffffffffffff16815260200142815260200183815250908060018154018082558091505060019003906000526020600020906003020160009091909190915060008201518160000160006101000a81548173ffffffffffffffffffffffffffffffffffffffff021916908373ffffffffffffffffffffffffffffffffffffffff16021790555060208201518160010155604082015181600201908051906020019061016d929190610223565b5050503373ffffffffffffffffffffffffffffffffffffffff167f930ae3e945e0fb504cafa5341c59061fc1a865f9c50b31208d0ed0656070427c42836040516101b89291906103fa565b60405180910390a250565b60008054906101000a900473ffffffffffffffffffffffffffffffffffffffff1673ffffffffffffffffffffffffffffffffffffffff166108fc479081150290604051600060405180830381858888f1935050505061022157600080fd5b565b82805461022f906104e8565b90600052602060002090601f0160209004810192826102515760008555610298565b82601f1061026a57805160ff1916838001178555610298565b82800160010185558215610298579182015b8281111561029757825182559160200191906001019061027c565b5b5090506102a591906102a9565b5090565b5b808211156102c25760008160009055506001016102aa565b5090565b60006102d96102d48461044f565b61042a565b9050828152602081018484840111156102f157600080fd5b6102fc8482856104a6565b509392505050565b600082601f83011261031557600080fd5b81356103258482602086016102c6565b91505092915050565b60006020828403121561034057600080fd5b600082013567ffffffffffffffff81111561035a57600080fd5b61036684828501610304565b91505092915050565b600061037a82610480565b610384818561048b565b93506103948185602086016104b5565b61039d816105a9565b840191505092915050565b60006103b5600c8361048b565b91506103c0826105ba565b602082019050919050565b6103d48161049c565b82525050565b600060208201905081810360008301526103f3816103a8565b9050919050565b600060408201905061040f60008301856103cb565b8181036020830152610421818461036f565b90509392505050565b6000610434610445565b9050610440828261051a565b919050565b6000604051905090565b600067ffffffffffffffff82111561046a5761046961057a565b5b610473826105a9565b9050602081019050919050565b600081519050919050565b600082825260208201905092915050565b6000819050919050565b82818337600083830152505050565b60005b838110156104d35780820151818401526020810190506104b8565b838111156104e2576000848401525b50505050565b6000600282049050600182168061050057607f821691505b602082108114156105145761051361054b565b5b50919050565b610523826105a9565b810181811067ffffffffffffffff821117156105425761054161057a565b5b80604052505050565b7f4e487b7100000000000000000000000000000000000000000000000000000000600052602260045260246000fd5b7f4e487b7100000000000000000000000000000000000000000000000000000000600052604160045260246000fd5b6000601f19601f8301169050919050565b7f42616c616e6365205a65726f000000000000000000000000000000000000000060008201525056fea264697066735822122009e16a5711e4df9c3f3e8cc5ca1421b1dfc552fb3fabb11614d20fa29d1a461b64736f6c63430008040033",
  "linkReferences": {},
  "deployedLinkReferences": {}
}